{"abi":[{"type":"constructor","inputs":[{"name":"_creator","type":"address","internalType":"address"},{"name":"_festivalPoapContract","type":"address","internalType":"address"},{"name":"_sessionPoapContract","type":"address","internalType":"address"},{"name":"_sessionsEnabled","type":"bool","internalType":"bool"}],"stateMutability":"nonpayable"},{"type":"function","name":"DEFAULT_ADMIN_ROLE","inputs":[],"outputs":[{"name":"","type":"bytes32","internalType":"bytes32"}],"stateMutability":"view"},{"type":"function","name":"MANAGER_ROLE","inputs":[],"outputs":[{"name":"","type":"bytes32","internalType":"bytes32"}],"stateMutability":"view"},{"type":"function","name":"VOLUNTEER_ROLE","inputs":[],"outputs":[{"name":"","type":"bytes32","internalType":"bytes32"}],"stateMutability":"view"},{"type":"function","name":"approve","inputs":[{"name":"to","type":"address","internalType":"address"},{"name":"tokenId","type":"uint256","internalType":"uint256"}],"outputs":[],"stateMutability":"nonpayable"},{"type":"function","name":"balanceOf","inputs":[{"name":"owner","type":"address","internalType":"address"}],"outputs":[{"name":"","type":"uint256","internalType":"uint256"}],"stateMutability":"view"},{"type":"function","name":"cancel","inputs":[],"outputs":[],"stateMutability":"nonpayable"},{"type":"function","name":"cancelSession","inputs":[{"name":"sessionAddr","type":"address","internalType":"address"}],"outputs":[],"stateMutability":"nonpayable"},{"type":"function","name":"cancelled","inputs":[],"outputs":[{"name":"","type":"bool","internalType":"bool"}],"stateMutability":"view"},{"type":"function","name":"capacity","inputs":[],"outputs":[{"name":"","type":"uint32","internalType":"uint32"}],"stateMutability":"view"},{"type":"function","name":"channelMetadataCid","inputs":[],"outputs":[{"name":"","type":"bytes32","internalType":"bytes32"}],"stateMutability":"view"},{"type":"function","name":"checkIn","inputs":[{"name":"attendee","type":"address","internalType":"address"}],"outputs":[],"stateMutability":"nonpayable"},{"type":"function","name":"createSession","inputs":[{"name":"_metadataCid","type":"bytes32","internalType":"bytes32"},{"name":"_startTimestamp","type":"uint64","internalType":"uint64"},{"name":"_endTimestamp","type":"uint64","internalType":"uint64"},{"name":"_festivalPoapTokenId","type":"uint256","internalType":"uint256"}],"outputs":[{"name":"","type":"address","internalType":"address"}],"stateMutability":"nonpayable"},{"type":"function","name":"creator","inputs":[],"outputs":[{"name":"","type":"address","internalType":"address"}],"stateMutability":"view"},{"type":"function","name":"endTime","inputs":[],"outputs":[{"name":"","type":"uint64","internalType":"uint64"}],"stateMutability":"view"},{"type":"function","name":"festivalPoapContract","inputs":[],"outputs":[{"name":"","type":"address","internalType":"address"}],"stateMutability":"view"},{"type":"function","name":"getApproved","inputs":[{"name":"tokenId","type":"uint256","internalType":"uint256"}],"outputs":[{"name":"","type":"address","internalType":"address"}],"stateMutability":"view"},{"type":"function","name":"getAttendees","inputs":[],"outputs":[{"name":"attendees","type":"address[]","internalType":"address[]"},{"name":"checkedInStatus","type":"bool[]","internalType":"bool[]"}],"stateMutability":"view"},{"type":"function","name":"getEventDetails","inputs":[],"outputs":[{"name":"","type":"bytes32","internalType":"bytes32"},{"name":"","type":"address","internalType":"address"},{"name":"","type":"address","internalType":"address"},{"name":"","type":"address","internalType":"address"},{"name":"","type":"uint64","internalType":"uint64"},{"name":"","type":"uint64","internalType":"uint64"},{"name":"","type":"bool","internalType":"bool"},{"name":"","type":"uint32","internalType":"uint32"},{"name":"","type":"bool","internalType":"bool"},{"name":"","type":"uint256","internalType":"uint256"}],"stateMutability":"view"},{"type":"function","name":"getRoleAdmin","inputs":[{"name":"role","type":"bytes32","internalType":"bytes32"}],"outputs":[{"name":"","type":"bytes32","internalType":"bytes32"}],"stateMutability":"view"},{"type":"function","name":"getRoleMember","inputs":[{"name":"role","type":"bytes32","internalType":"bytes32"},{"name":"index","type":"uint256","internalType":"uint256"}],"outputs":[{"name":"","type":"address","internalType":"address"}],"stateMutability":"view"},{"type":"function","name":"getRoleMemberCount","inputs":[{"name":"role","type":"bytes32","internalType":"bytes32"}],"outputs":[{"name":"","type":"uint256","internalType":"uint256"}],"stateMutability":"view"},{"type":"function","name":"getRoleMembers","inputs":[{"name":"role","type":"bytes32","internalType":"bytes32"}],"outputs":[{"name":"","type":"address[]","internalType":"address[]"}],"stateMutability":"view"},{"type":"function","name":"getSessionCount","inputs":[],"outputs":[{"name":"","type":"uint256","internalType":"uint256"}],"stateMutability":"view"},{"type":"function","name":"getSessions","inputs":[],"outputs":[{"name":"","type":"address[]","internalType":"address[]"}],"stateMutability":"view"},{"type":"function","name":"grantRole","inputs":[{"name":"role","type":"bytes32","internalType":"bytes32"},{"name":"account","type":"address","internalType":"address"}],"outputs":[],"stateMutability":"nonpayable"},{"type":"function","name":"hasRole","inputs":[{"name":"role","type":"bytes32","internalType":"bytes32"},{"name":"account","type":"address","internalType":"address"}],"outputs":[{"name":"","type":"bool","internalType":"bool"}],"stateMutability":"view"},{"type":"function","name":"isApprovedForAll","inputs":[{"name":"owner","type":"address","internalType":"address"},{"name":"operator","type":"address","internalType":"address"}],"outputs":[{"name":"","type":"bool","internalType":"bool"}],"stateMutability":"view"},{"type":"function","name":"isCheckedIn","inputs":[{"name":"","type":"address","internalType":"address"}],"outputs":[{"name":"","type":"bool","internalType":"bool"}],"stateMutability":"view"},{"type":"function","name":"isRegistered","inputs":[{"name":"","type":"address","internalType":"address"}],"outputs":[{"name":"","type":"bool","internalType":"bool"}],"stateMutability":"view"},{"type":"function","name":"isSession","inputs":[{"name":"","type":"address","internalType":"address"}],"outputs":[{"name":"","type":"bool","internalType":"bool"}],"stateMutability":"view"},{"type":"function","name":"manualCheckIn","inputs":[{"name":"attendee","type":"address","internalType":"address"}],"outputs":[],"stateMutability":"nonpayable"},{"type":"function","name":"metadataCid","inputs":[],"outputs":[{"name":"","type":"bytes32","internalType":"bytes32"}],"stateMutability":"view"},{"type":"function","name":"name","inputs":[],"outputs":[{"name":"","type":"string","internalType":"string"}],"stateMutability":"view"},{"type":"function","name":"ownerOf","inputs":[{"name":"tokenId","type":"uint256","internalType":"uint256"}],"outputs":[{"name":"","type":"address","internalType":"address"}],"stateMutability":"view"},{"type":"function","name":"register","inputs":[],"outputs":[],"stateMutability":"nonpayable"},{"type":"function","name":"registeredCount","inputs":[],"outputs":[{"name":"","type":"uint256","internalType":"uint256"}],"stateMutability":"view"},{"type":"function","name":"renounceRole","inputs":[{"name":"role","type":"bytes32","internalType":"bytes32"},{"name":"callerConfirmation","type":"address","internalType":"address"}],"outputs":[],"stateMutability":"nonpayable"},{"type":"function","name":"revokeRole","inputs":[{"name":"role","type":"bytes32","internalType":"bytes32"},{"name":"account","type":"address","internalType":"address"}],"outputs":[],"stateMutability":"nonpayable"},{"type":"function","name":"safeTransferFrom","inputs":[{"name":"from","type":"address","internalType":"address"},{"name":"to","type":"address","internalType":"address"},{"name":"tokenId","type":"uint256","internalType":"uint256"}],"outputs":[],"stateMutability":"nonpayable"},{"type":"function","name":"safeTransferFrom","inputs":[{"name":"from","type":"address","internalType":"address"},{"name":"to","type":"address","internalType":"address"},{"name":"tokenId","type":"uint256","internalType":"uint256"},{"name":"data","type":"bytes","internalType":"bytes"}],"outputs":[],"stateMutability":"nonpayable"},{"type":"function","name":"sessionCreator","inputs":[{"name":"","type":"address","internalType":"address"}],"outputs":[{"name":"","type":"address","internalType":"address"}],"stateMutability":"view"},{"type":"function","name":"sessionPoapContract","inputs":[],"outputs":[{"name":"","type":"address","internalType":"address"}],"stateMutability":"view"},{"type":"function","name":"sessions","inputs":[{"name":"","type":"uint256","internalType":"uint256"}],"outputs":[{"name":"","type":"address","internalType":"address"}],"stateMutability":"view"},{"type":"function","name":"sessionsEnabled","inputs":[],"outputs":[{"name":"","type":"bool","internalType":"bool"}],"stateMutability":"view"},{"type":"function","name":"sessionsPerDay","inputs":[{"name":"","type":"address","internalType":"address"},{"name":"","type":"uint256","internalType":"uint256"}],"outputs":[{"name":"","type":"uint256","internalType":"uint256"}],"stateMutability":"view"},{"type":"function","name":"setApprovalForAll","inputs":[{"name":"operator","type":"address","internalType":"address"},{"name":"approved","type":"bool","internalType":"bool"}],"outputs":[],"stateMutability":"nonpayable"},{"type":"function","name":"setup","inputs":[{"name":"_metadataCid","type":"bytes32","internalType":"bytes32"},{"name":"_channelMetadataCid","type":"bytes32","internalType":"bytes32"},{"name":"_startTime","type":"uint64","internalType":"uint64"},{"name":"_endTime","type":"uint64","internalType":"uint64"},{"name":"_capacity","type":"uint32","internalType":"uint32"}],"outputs":[],"stateMutability":"nonpayable"},{"type":"function","name":"startTime","inputs":[],"outputs":[{"name":"","type":"uint64","internalType":"uint64"}],"stateMutability":"view"},{"type":"function","name":"supportsInterface","inputs":[{"name":"interfaceId","type":"bytes4","internalType":"bytes4"}],"outputs":[{"name":"","type":"bool","internalType":"bool"}],"stateMutability":"view"},{"type":"function","name":"symbol","inputs":[],"outputs":[{"name":"","type":"string","internalType":"string"}],"stateMutability":"view"},{"type":"function","name":"ticketOf","inputs":[{"name":"","type":"address","internalType":"address"}],"outputs":[{"name":"","type":"uint256","internalType":"uint256"}],"stateMutability":"view"},{"type":"function","name":"tokenURI","inputs":[{"name":"tokenId","type":"uint256","internalType":"uint256"}],"outputs":[{"name":"","type":"string","internalType":"string"}],"stateMutability":"view"},{"type":"function","name":"transferFrom","inputs":[{"name":"from","type":"address","internalType":"address"},{"name":"to","type":"address","internalType":"address"},{"name":"tokenId","type":"uint256","internalType":"uint256"}],"outputs":[],"stateMutability":"nonpayable"},{"type":"function","name":"updateCapacity","inputs":[{"name":"newCapacity","type":"uint32","internalType":"uint32"}],"outputs":[],"stateMutability":"nonpayable"},{"type":"function","name":"updateChannelMetadataCid","inputs":[{"name":"newCid","type":"bytes32","internalType":"bytes32"}],"outputs":[],"stateMutability":"nonpayable"},{"type":"function","name":"updateCid","inputs":[{"name":"newCid","type":"bytes32","internalType":"bytes32"}],"outputs":[],"stateMutability":"nonpayable"},{"type":"function","name":"updateSessionsEnabled","inputs":[{"name":"enabled","type":"bool","internalType":"bool"}],"outputs":[],"stateMutability":"nonpayable"},{"type":"event","name":"Approval","inputs":[{"name":"owner","type":"address","indexed":true,"internalType":"address"},{"name":"approved","type":"address","indexed":true,"internalType":"address"},{"name":"tokenId","type":"uint256","indexed":true,"internalType":"uint256"}],"anonymous":false},{"type":"event","name":"ApprovalForAll","inputs":[{"name":"owner","type":"address","indexed":true,"internalType":"address"},{"name":"operator","type":"address","indexed":true,"internalType":"address"},{"name":"approved","type":"bool","indexed":false,"internalType":"bool"}],"anonymous":false},{"type":"event","name":"CapacityUpdated","inputs":[{"name":"newCapacity","type":"uint32","indexed":false,"internalType":"uint32"}],"anonymous":false},{"type":"event","name":"ChannelMetadataUpdated","inputs":[{"name":"newCid","type":"bytes32","indexed":false,"internalType":"bytes32"}],"anonymous":false},{"type":"event","name":"CheckedIn","inputs":[{"name":"attendee","type":"address","indexed":true,"internalType":"address"}],"anonymous":false},{"type":"event","name":"FestivalCancelled","inputs":[],"anonymous":false},{"type":"event","name":"MetadataUpdated","inputs":[{"name":"newCid","type":"bytes32","indexed":false,"internalType":"bytes32"}],"anonymous":false},{"type":"event","name":"Registered","inputs":[{"name":"attendee","type":"address","indexed":true,"internalType":"address"},{"name":"tokenId","type":"uint256","indexed":false,"internalType":"uint256"}],"anonymous":false},{"type":"event","name":"RoleAdminChanged","inputs":[{"name":"role","type":"bytes32","indexed":true,"internalType":"bytes32"},{"name":"previousAdminRole","type":"bytes32","indexed":true,"internalType":"bytes32"},{"name":"newAdminRole","type":"bytes32","indexed":true,"internalType":"bytes32"}],"anonymous":false},{"type":"event","name":"RoleGranted","inputs":[{"name":"role","type":"bytes32","indexed":true,"internalType":"bytes32"},{"name":"account","type":"address","indexed":true,"internalType":"address"},{"name":"sender","type":"address","indexed":true,"internalType":"address"}],"anonymous":false},{"type":"event","name":"RoleRevoked","inputs":[{"name":"role","type":"bytes32","indexed":true,"internalType":"bytes32"},{"name":"account","type":"address","indexed":true,"internalType":"address"},{"name":"sender","type":"address","indexed":true,"internalType":"address"}],"anonymous":false},{"type":"event","name":"SessionCancelledByFlagging","inputs":[{"name":"session","type":"address","indexed":true,"internalType":"address"},{"name":"creator","type":"address","indexed":true,"internalType":"address"},{"name":"flagCount","type":"uint256","indexed":false,"internalType":"uint256"}],"anonymous":false},{"type":"event","name":"SessionCreated","inputs":[{"name":"session","type":"address","indexed":true,"internalType":"address"},{"name":"creator","type":"address","indexed":true,"internalType":"address"},{"name":"metadataCid","type":"bytes32","indexed":false,"internalType":"bytes32"}],"anonymous":false},{"type":"event","name":"SessionsEnabledUpdated","inputs":[{"name":"enabled","type":"bool","indexed":false,"internalType":"bool"}],"anonymous":false},{"type":"event","name":"Transfer","inputs":[{"name":"from","type":"address","indexed":true,"internalType":"address"},{"name":"to","type":"address","indexed":true,"internalType":"address"},{"name":"tokenId","type":"uint256","indexed":true,"internalType":"uint256"}],"anonymous":false},{"type":"error","name":"AccessControlBadConfirmation","inputs":[]},{"type":"error","name":"AccessControlUnauthorizedAccount","inputs":[{"name":"account","type":"address","internalType":"address"},{"name":"neededRole","type":"bytes32","internalType":"bytes32"}]},{"type":"error","name":"AlreadyCheckedIn","inputs":[]},{"type":"error","name":"AlreadyConfigured","inputs":[]},{"type":"error","name":"AlreadyRegistered","inputs":[]},{"type":"error","name":"CapacityBelowRegistered","inputs":[]},{"type":"error","name":"ERC721IncorrectOwner","inputs":[{"name":"sender","type":"address","internalType":"address"},{"name":"tokenId","type":"uint256","internalType":"uint256"},{"name":"owner","type":"address","internalType":"address"}]},{"type":"error","name":"ERC721InsufficientApproval","inputs":[{"name":"operator","type":"address","internalType":"address"},{"name":"tokenId","type":"uint256","internalType":"uint256"}]},{"type":"error","name":"ERC721InvalidApprover","inputs":[{"name":"approver","type":"address","internalType":"address"}]},{"type":"error","name":"ERC721InvalidOperator","inputs":[{"name":"operator","type":"address","internalType":"address"}]},{"type":"error","name":"ERC721InvalidOwner","inputs":[{"name":"owner","type":"address","internalType":"address"}]},{"type":"error","name":"ERC721InvalidReceiver","inputs":[{"name":"receiver","type":"address","internalType":"address"}]},{"type":"error","name":"ERC721InvalidSender","inputs":[{"name":"sender","type":"address","internalType":"address"}]},{"type":"error","name":"ERC721NonexistentToken","inputs":[{"name":"tokenId","type":"uint256","internalType":"uint256"}]},{"type":"error","name":"EventFull","inputs":[]},{"type":"error","name":"InvalidTimeRange","inputs":[]},{"type":"error","name":"IsCancelled","inputs":[]},{"type":"error","name":"MissingChannelMetadata","inputs":[]},{"type":"error","name":"MissingMetadata","inputs":[]},{"type":"error","name":"NotASession","inputs":[]},{"type":"error","name":"NotAuthorizedToCancelSession","inputs":[]},{"type":"error","name":"NotAuthorizedToCreateSession","inputs":[]},{"type":"error","name":"NotRegistered","inputs":[]},{"type":"error","name":"SessionAlreadyCancelled","inputs":[]},{"type":"error","name":"SessionEndsAfterFestival","inputs":[]},{"type":"error","name":"SessionLimitReached","inputs":[]},{"type":"error","name":"SessionStartsBeforeFestival","inputs":[]},{"type":"error","name":"SessionsDisabled","inputs":[]},{"type":"error","name":"TransferNotAllowed","inputs":[]}],"bytecode":{"object":"0x6080604052346104c85761631c6080813803918261001c816104cc565b9384928339810103126104c857610032816104f1565b61003e602083016104f1565b90606061004d604085016104f1565b9301518015158091036104c85761006460406104cc565b93600f85526e11995cdd1a5d985b08151a58dad95d608a1b602086015261008b60406104cc565b600781526611951250d2d15560ca1b6020820152855190956001600160401b0382116103c7575f5490600182811c921680156104be575b60208310146103a95781601f849311610449575b50602090601f83116001146103e6575f926103db575b50508160011b915f199060031b1c1916175f555b8451946001600160401b0386116103c757600154600181811c911680156103bd575b60208210146103a957601f811161033b575b50602090601f87116001146102d2579580916101f096975f926102c7575b50508160011b915f199060031b1c1916176001555b6001600e55600a80546001600160a01b03199081166001600160a01b03868116918217909355600b8054831698841698909817909755600c805490911692909116919091179055600d805460ff60401b191660409290921b68ff0000000000000000169190911790556101d981610505565b61028f575b6101e78161057b565b61024a576105fb565b610204575b604051615b7090816106ec8239f35b5f5160206162fc5f395f51905f525f526007602052610243907fbe8bb4833497a03f520f3fcef13ae816023e8d2f0f0f98707d9ee8c026de2bb461067b565b505f6101f5565b5f51602061629c5f395f51905f525f526007602052610289837fcbc82fc82c015b32ce89c3c5ced69cc726bc4fa91f427b060feff78e3f4fb1ee61067b565b506105fb565b5f805260076020526102c1837f6d5257204ebe7d88fd91ae87941cb2dd9d8062b64ae5a2bd2d28ec40b9fbf6df61067b565b506101de565b015190505f80610152565b90601f1987169160015f52815f20925f5b81811061032357509160019391896101f0999a941061030b575b505050811b01600155610167565b01515f1960f88460031b161c191690555f80806102fd565b929360206001819287860151815501950193016102e3565b868111156101345760015f52601f870160051c7fb10e2d527612073b26eecdfd717e6a320cf44b4afac2b0732d9fcbe2b7fa0cf6602089106103a1575b81601f9101920160051c03905f5b828110610394575050610134565b5f82820155600101610386565b5f9150610378565b634e487b7160e01b5f52602260045260245ffd5b90607f1690610122565b634e487b7160e01b5f52604160045260245ffd5b015190505f806100ec565b5f8080528281209350601f198516905b8181106104315750908460019594939210610419575b505050811b015f55610100565b01515f1960f88460031b161c191690555f808061040c565b929360206001819287860151815501950193016103f6565b828111156100d6575f8052909150601f830160051c7f290decd9548b62a8d60345a988386fc84ba6bc95484008f6362f93160ef3e563602085106104b6575b849392601f0160051c82900391015f5b8281106104a65750506100d6565b5f81830155859450600101610498565b5f9150610488565b91607f16916100c2565b5f80fd5b6040519190601f01601f191682016001600160401b038111838210176103c757604052565b51906001600160a01b03821682036104c857565b6001600160a01b0381165f9081525f5160206162dc5f395f51905f52602052604090205460ff16610576576001600160a01b03165f8181525f5160206162dc5f395f51905f5260205260408120805460ff191660011790553391905f51602061625c5f395f51905f528180a4600190565b505f90565b6001600160a01b0381165f9081525f5160206162bc5f395f51905f52602052604090205460ff16610576576001600160a01b03165f8181525f5160206162bc5f395f51905f5260205260408120805460ff191660011790553391905f51602061629c5f395f51905f52905f51602061625c5f395f51905f529080a4600190565b6001600160a01b0381165f9081525f51602061627c5f395f51905f52602052604090205460ff16610576576001600160a01b03165f8181525f51602061627c5f395f51905f5260205260408120805460ff191660011790553391905f5160206162fc5f395f51905f52905f51602061625c5f395f51905f529080a4600190565b6001810190825f528160205260405f2054155f146106e4578054680100000000000000008110156103c757600181018083558110156106d0578390825f5260205f20015554915f5260205260405f2055600190565b634e487b7160e01b5f52603260045260245ffd5b5050505f9056fe6080806040526004361015610012575f80fd5b5f905f3560e01c90816301ffc9a7146120a95750806302d05d3f146120815780630538439f1461205957806306387cdb14611c5957806306fdde0314611b9e578063081812fc14611b61578063095ea7b314611a785780631aa3a0081461197e578063210ff9bb1461196057806323b872dd14611948578063248a9ca3146119145780632f2ff15d146118a657806330cf203a146118675780633197cbb61461184057806336568abe146117fb5780633674b18a146116b15780634165a1bb1461158157806342842e0e146115515780634bdeb1d6146113b25780635cfc1a511461138b57806361503e451461130d5780636352211e146112dc578063693c026b1461126e5780636e6734bf1461125057806370a08231146111fd57806378e97925146111d35780637d9b3bd41461119057806383c4b7a31461110f5780638e4b8aec14610d095780639010d07c14610cc3578063903fe15f14610c8a57806391d1485414610c4057806395d89b4114610b335780639a82a09a14610b0d578063a217fddf14610af1578063a22cb46514610a4f578063a3246ad3146109d7578063a70b30e614610996578063b88d4fde146108f8578063c3c5a547146108b9578063c87b56dd1461085e578063c935895414610838578063ca15c8731461080e578063cb56c2f1146107e5578063d4e0fa2314610744578063d547741f146106fc578063d5ec6bab146106de578063d85860701461067a578063d9a59e3314610537578063dc15f9c2146104f8578063e2bb3ccf14610450578063e6733eda146103ec578063e985e9c514610394578063ea8a1af014610327578063ec87621c146102ec578063fb0a37b9146102b15763ff36858114610291575f80fd5b346102ae57806003193601126102ae576020600854604051908152f35b80fd5b50346102ae57806003193601126102ae5760206040517ff7f0fdec05d2d68a3ca32c78a26a4236722632f1d98fdee081484acf844fc7dc8152f35b50346102ae57806003193601126102ae5760206040517f241ecf16d79d0f8dbfb92cbc07fe17840425976cf0667f022fe9877caa831b088152f35b50346102ae57806003193601126102ae576103406127ad565b600d5460ff8160681c166103855760ff60681b1916600160681b17600d557fc24dafcf24215a8a10b3934a5e93011b8b12bf838794d6aee916c23ff63a41fb8180a180f35b6303d1c3ef60e21b8252600482fd5b50346102ae5760403660031901126102ae5760406103b0612182565b916103b9612198565b9260018060a01b031681526005602052209060018060a01b03165f52602052602060ff60405f2054166040519015158152f35b50346102ae5760203660031901126102ae57600435610409612a7f565b8015610441576020817f6e27af24ead46b4b469e383b46b4b75487fcf1ffce54d216add332f9de2120c592600855604051908152a180f35b63de4294fb60e01b8252600482fd5b50346102ae57806003193601126102ae5761014060085460018060a01b03600a541660ff60018060a01b03600b54166001600160401b03600c54600d5492600f54956040519788526020880152604087015260018060a01b038116606087015260a01c1660808501526001600160401b03811660a0850152818160401c16151560c085015263ffffffff8160481c1660e085015260681c161515610100830152610120820152f35b50346102ae5760203660031901126102ae5760209060ff906040906001600160a01b03610523612182565b168152601584522054166040519015158152f35b50346102ae5760203660031901126102ae57610551612182565b60ff600d5460681c1661038557610566612870565b6001600160a01b0381168083526011602052604083205490919060ff161561066b57818352601260205260ff60408420541661065c57818352601260209081526040808520805460ff19166001179055600b549051630e74825360e31b81526001600160a01b03938416600482015230602482015292839116818681604481015b03925af180156106515761061e575b507f591c0e1d11c1207ddcaf435e99150cb7d9c849a2c6d5eae9547cd518cef6a8cd8280a280f35b6020813d602011610649575b816106376020938361224d565b8101031261064557516105f6565b5f80fd5b3d915061062a565b6040513d85823e3d90fd5b630c98289f60e41b8352600483fd5b63aba4733960e01b8352600483fd5b50346102ae5760203660031901126102ae57600435610697612a7f565b80156106cf576020817f6d8f038fc40f4e221a7ccc4c3c8d75ea5e9974ac3e5807526511c1a1341e508592600955604051908152a180f35b63c444ba7b60e01b8252600482fd5b50346102ae57806003193601126102ae576020600954604051908152f35b50346102ae5760403660031901126102ae5761074060043561071c612198565b9061073b610736825f526006602052600160405f20015490565b6127fc565b612836565b5080f35b50346102ae5760203660031901126102ae5760043563ffffffff81169081810361064557610770612a7f565b811515806107da575b6107cb577f07a1b0557a243056c07025e4fae99ba5c729ecaa2cca3eb17e2fcd7e166aac3d9160209163ffffffff60481b600d549160481b169063ffffffff60481b191617600d55604051908152a180f35b6327a3513f60e01b8352600483fd5b50600f548210610779565b50346102ae57806003193601126102ae57600c546040516001600160a01b039091168152602090f35b50346102ae5760203660031901126102ae5760406020916004358152600783522054604051908152f35b50346102ae57806003193601126102ae57602060ff600d5460401c166040519015158152f35b50346102ae5760203660031901126102ae5761087b600435612542565b508060405161088b60208261224d565b52506108b560405161089e60208261224d565b5f815260405191829160208352602083019061215e565b0390f35b50346102ae5760203660031901126102ae5760209060ff906040906001600160a01b036108e4612182565b168152601184522054166040519015158152f35b50346102ae5760803660031901126102ae57610912612182565b61091a612198565b604435606435916001600160401b0383116109925736602384011215610992578260040135938561094a8661226e565b94610958604051968761224d565b868652366024888301011161098e578661098b976024602093018389013786010152610985838383612325565b3361295b565b80f35b5080fd5b8480fd5b50346102ae5760203660031901126102ae576020906001600160a01b036109bb612182565b16815260168252604060018060a01b0391205416604051908152f35b50346102ae5760203660031901126102ae576004358152600760205260408120604051918260208354918281520192825260208220915b818110610a39576108b585610a258187038261224d565b6040519182916020835260208301906121e8565b8254845260209093019260019283019201610a0e565b50346102ae5760403660031901126102ae57610a69612182565b60243590811515809203610aed576001600160a01b0316908115610ad957338352600560205260408320825f5260205260405f2060ff1981541660ff83161790556040519081527f17307eab39ab6107e8899845ad3d59bd9653f200f220920489ca2b5937696c3160203392a380f35b630b61174360e31b83526004829052602483fd5b8280fd5b50346102ae57806003193601126102ae57602090604051908152f35b50346102ae57806003193601126102ae57602060ff600d5460681c166040519015158152f35b50346102ae57806003193601126102ae576040519080600154908160011c91600181168015610c36575b602084108114610c2257838652908115610bfb5750600114610b9e575b6108b584610b8a8186038261224d565b60405191829160208352602083019061215e565b600181527fb10e2d527612073b26eecdfd717e6a320cf44b4afac2b0732d9fcbe2b7fa0cf6939250905b808210610be157509091508101602001610b8a82610b7a565b919260018160209254838588010152019101909291610bc8565b60ff191660208087019190915292151560051b85019092019250610b8a9150839050610b7a565b634e487b7160e01b83526022600452602483fd5b92607f1692610b5d565b50346102ae5760403660031901126102ae576040610c5c612198565b9160043581526006602052209060018060a01b03165f52602052602060ff60405f2054166040519015158152f35b50346102ae5760203660031901126102ae576020906040906001600160a01b03610cb2612182565b168152601383522054604051908152f35b50346102ae5760403660031901126102ae57610cf060209160043581526007835260406024359120612224565b905460405160039290921b1c6001600160a01b03168152f35b50346102ae5760203660031901126102ae576001600160a01b03610d2b612182565b1690818152601560205260ff6040822054161561110057604051634d41504d60e11b8152602081600481865afa908115610e6b5782916110e1575b506110d257818152601660205260018060a01b036040822054169160405192633d771f1360e21b8452602084600481855afa93841561065157839461109e575b506040516314ad53d560e31b8152602081600481865afa908115611093578491611061575b508410610ecb57803314610e7957828052600660209081526040808520335f908152925290205460ff161580610e88575b610e7957817fdd92429c72c3d018373fa7da80659b3692b4ed03fc39da998eddee86670438b360208596604051908152a35b803b15610e7657818091600460405180948193630ea8a1af60e41b83525af18015610e6b57610e5a5750f35b81610e649161224d565b6102ae5780f35b6040513d84823e3d90fd5b50fd5b638cbb3b5360e01b8352600483fd5b507f241ecf16d79d0f8dbfb92cbc07fe17840425976cf0667f022fe9877caa831b088352600660209081526040808520335f908152925290205460ff1615610dfc565b60405163a217fddf60e01b815291935090602081600481875afa90811561065157839161102f575b5060405190632474521560e21b82526004820152336024820152602081604481875afa908115610651578391611000575b5015610ff1576040516378e9792560e01b8152602081600481875afa908115610651578391610faf575b50610f6e62015180916001600160401b0380600c5460a01c1691166122b1565b0490825260176020526040822090825260205260408120918254928315610f9b5782935f19019055610e2e565b634e487b7160e01b83526011600452602483fd5b90506020813d602011610fe9575b81610fca6020938361224d565b81010312610aed57610f6e610fe2620151809261229d565b9150610f4e565b3d9150610fbd565b638cbb3b5360e01b8252600482fd5b611022915060203d602011611028575b61101a818361224d565b81019061252a565b5f610f24565b503d611010565b90506020813d602011611059575b8161104a6020938361224d565b81010312610aed57515f610ef3565b3d915061103d565b90506020813d60201161108b575b8161107c6020938361224d565b8101031261064557515f610dcb565b3d915061106f565b6040513d86823e3d90fd5b9093506020813d6020116110ca575b816110ba6020938361224d565b810103126106455751925f610da6565b3d91506110ad565b630564caa360e31b8152600490fd5b6110fa915060203d6020116110285761101a818361224d565b5f610d66565b63712fb95960e01b8152600490fd5b50346102ae5760203660031901126102ae57600435906014548210156102ae5760145482101561117c57601481527fce6d7b5282bd9a3661ae061feed1dbda4e52ab073b1f9285be6e155d9c38d4ec9091015460405160039290921b1c6001600160a01b03168152602090f35b634e487b7160e01b81526032600452602490fd5b50346102ae5760403660031901126102ae576020906040906001600160a01b036111b8612182565b16815260178352818120602435825283522054604051908152f35b50346102ae57806003193601126102ae5760206001600160401b03600c5460a01c16604051908152f35b50346102ae5760203660031901126102ae576001600160a01b0361121f612182565b16801561123c578160409160209352600383522054604051908152f35b6322718ad960e21b82526004829052602482fd5b50346102ae57806003193601126102ae576020601454604051908152f35b50346102ae5760203660031901126102ae5760043580151580910361098e5760207fef22936cfba84ae6400b2c2da72fedbf0849a46e99276b1f55e57716bf2656d1916112b96127ad565b600d5460ff60401b8260401b169060ff60401b191617600d55604051908152a180f35b50346102ae5760203660031901126102ae5760206112fb600435612542565b6040516001600160a01b039091168152f35b50346102ae57806003193601126102ae5760405160148054808352908352909160208301917fce6d7b5282bd9a3661ae061feed1dbda4e52ab073b1f9285be6e155d9c38d4ec915b81811061136c576108b585610a258187038261224d565b82546001600160a01b0316845260209093019260019283019201611355565b50346102ae57806003193601126102ae57602063ffffffff600d5460481c16604051908152f35b50346102ae5760203660031901126102ae576113cc612182565b600d549060ff8260681c16611542576113e3612870565b6001600160a01b0381168084526012602052604084205490929060ff1661153357908391838352601160205260ff60408420541615611471575b50828252601260209081526040808420805460ff19166001179055600b549051630e74825360e31b81526001600160a01b0393841660048201523060248201529391928492911690829081604481016105e7565b63ffffffff91925060481c168015159081611526575b506115175760206105e78492847f6f3bf3fa84e4763a43b3d23f9d79be242d6d5c834941ff4c1111b67469e1150c84600e546114c2816122d2565b600e558388526011825260408820600160ff19825416179055838852601382528060408920556114f3600f546122d2565b600f556114ff856122e0565b6115098186612576565b604051908152a2915061141d565b637dc73f6160e11b8352600483fd5b9050600f5410155f611487565b630c98289f60e41b8452600484fd5b6303d1c3ef60e21b8352600483fd5b50346102ae5761098b611563366121ae565b906040519261157360208561224d565b858452610985838383612325565b50346102ae57806003193601126102ae57604051906010548083528260208101601084526020842092845b81811061168f5750506115c19250038361224d565b81516115e56115cf826124ff565b916115dd604051938461224d565b8083526124ff565b602082019290601f1901368437805b8451811015611638576001906001600160a01b036116128288612516565b51168352601260205260ff60408420541661162d8286612516565b9015159052016115f4565b5061165593929160206040519586956040875260408701906121e8565b918583038287015251918281520192915b818110611674575050500390f35b82511515845285945060209384019390920191600101611666565b84546001600160a01b03168352600194850194879450602090930192016115ac565b50346102ae5760a03660031901126102ae576024356004356116d1612148565b606435906001600160401b038216809203610992576084359063ffffffff821682036117f7576116ff6127ad565b600d549360ff8560701c166117e8576001600160401b0382168411156117d95780156117ca5785156117bb576008556009859055600c805467ffffffffffffffff60a01b191660a09290921b67ffffffffffffffff60a01b169190911790556eff00ffffffff00ffffffffffffffff199092161760489190911b63ffffffff60481b1617600160701b17600d556040519081527f6d8f038fc40f4e221a7ccc4c3c8d75ea5e9974ac3e5807526511c1a1341e508590602090a180f35b63c444ba7b60e01b8752600487fd5b63de4294fb60e01b8752600487fd5b63536a71af60e01b8752600487fd5b6308db0db560e11b8752600487fd5b8580fd5b50346102ae5760403660031901126102ae57611815612198565b336001600160a01b038216036118315761074090600435612836565b63334bd91960e11b8252600482fd5b50346102ae57806003193601126102ae5760206001600160401b03600d5416604051908152f35b50346102ae5760203660031901126102ae5760209060ff906040906001600160a01b03611892612182565b168152601284522054166040519015158152f35b50346102ae5760403660031901126102ae576004356118c3612198565b6118dc610736835f526006602052600160405f20015490565b6118e68183612b2c565b6118ee578280f35b90825260076020526040822061190d916001600160a01b031690612c3c565b505f808280f35b50346102ae5760203660031901126102ae5760206119406004355f526006602052600160405f20015490565b604051908152f35b50346102ae5761098b61195a366121ae565b91612325565b50346102ae57806003193601126102ae576020600f54604051908152f35b50346102ae57806003193601126102ae57600d5460ff8160681c1661038557338252601160205260ff604083205416611a695760481c63ffffffff168015159081611a5c575b50611a4d57600e546119d5816122d2565b600e55338252601160205260408220600160ff198254161790553382526013602052806040832055611a08600f546122d2565b600f55611a14336122e0565b611a1e8133612576565b6040519081527f6f3bf3fa84e4763a43b3d23f9d79be242d6d5c834941ff4c1111b67469e1150c60203392a280f35b637dc73f6160e11b8152600490fd5b9050600f5410155f6119c4565b630ea075bf60e21b8252600482fd5b50346102ae5760403660031901126102ae57611a92612182565b602435611a9e81612542565b33151580611b4e575b80611b22575b611b0f5781906001600160a01b0384811691167f8c5be1e5ebec7d5bd14f71427d1e84f3dd0314c0f7b2291e5b200ac8c7c3b9258680a4825260046020526040822080546001600160a01b0319166001600160a01b0390921691909117905580f35b63a9fbf51f60e01b845233600452602484fd5b506001600160a01b0381168452600560209081526040808620335f908152925290205460ff1615611aad565b506001600160a01b038116331415611aa7565b50346102ae5760203660031901126102ae57602090600435611b8281612542565b50815260048252604060018060a01b0391205416604051908152f35b50346102ae57806003193601126102ae5760405190808054908160011c91600181168015611c4f575b602084108114610c2257838652908115610bfb5750600114611bf3576108b584610b8a8186038261224d565b8080527f290decd9548b62a8d60345a988386fc84ba6bc95484008f6362f93160ef3e563939250905b808210611c3557509091508101602001610b8a82610b7a565b919260018160209254838588010152019101909291611c1c565b92607f1692611bc7565b5034610645576080366003190112610645576004356024356001600160401b03811680910361064557611c8a612148565b600d549060ff8260681c1661204a5760ff8260401c161561203b57831561202c57600b5460405163f728ff4b60e01b8152606435600482015290606090829060249082906001600160a01b03165afa908115611f32575f91611fb1575b5060208101516001600160a01b0316331480159190611f9c575b50611f8d576001600160401b03169082821115611f7e576001600160401b03600c5460a01c1690818410611f6f576001600160401b03168211611f6057611d4c6201518091846122b1565b04335f52601760205260405f20815f52602052600260405f20541015611f5157335f52601760205260405f20905f5260205260405f20611d8c81546122d2565b9055600c54600b54604051936001600160a01b0392831693612dcf938487019316916001600160401b03841187851017611f3d5760e0958795612d6c87393385526020850152876040850152606084015260808301523060a083015260c08201520301905ff08015611f325760018060a01b031690601454600160401b811015611f3d57806001611e2292016014556014612224565b81546001600160a01b0360039290921b82811b199091169085901b179091555f838152601560209081526040808320805460ff191660011790556016909152902080546001600160a01b03191633179055600c5416803b15610645575f809160246040518094819363064c241960e11b83528860048401525af18015611f3257611f1d575b50813b15610aed5760405163e9420e0160e01b8152838160048183875af1801561109357611f08575b60208383604051908152817ffbcd545747e721f9b8e8ef52e598c4c6f414f6ef65ef21896d02ea7354849ffe843393a3604051908152f35b611f1384809261224d565b610aed5782611ed0565b611f2a9193505f9061224d565b5f915f611ea7565b6040513d5f823e3d90fd5b634e487b7160e01b5f52604160045260245ffd5b6353ba466960e01b5f5260045ffd5b63b6e0293b60e01b5f5260045ffd5b633345068160e21b5f5260045ffd5b63536a71af60e01b5f5260045ffd5b6395138e2360e01b5f5260045ffd5b516001600160a01b031630141590505f611d01565b90506060813d606011612024575b81611fcc6060938361224d565b810103126106455760405190606082018281106001600160401b03821117611f3d5761201991604091825261200081612289565b845261200e60208201612289565b60208501520161229d565b60408201525f611ce7565b3d9150611fbf565b63de4294fb60e01b5f5260045ffd5b63344b0b2960e21b5f5260045ffd5b6303d1c3ef60e21b5f5260045ffd5b34610645575f36600319011261064557600b546040516001600160a01b039091168152602090f35b34610645575f36600319011261064557600a546040516001600160a01b039091168152602090f35b34610645576020366003190112610645576004359063ffffffff60e01b821680920361064557602091635a05180f60e01b81149081156120eb575b5015158152f35b637965db0b60e01b811491508115612105575b50836120e4565b6380ac58cd60e01b811491508115612137575b8115612126575b50836120fe565b6301ffc9a760e01b1490508361211f565b635b5e139f60e01b81149150612118565b604435906001600160401b038216820361064557565b805180835260209291819084018484015e5f828201840152601f01601f1916010190565b600435906001600160a01b038216820361064557565b602435906001600160a01b038216820361064557565b6060906003190112610645576004356001600160a01b038116810361064557906024356001600160a01b0381168103610645579060443590565b90602080835192838152019201905f5b8181106122055750505090565b82516001600160a01b03168452602093840193909201916001016121f8565b8054821015612239575f5260205f2001905f90565b634e487b7160e01b5f52603260045260245ffd5b90601f801991011681019081106001600160401b03821117611f3d57604052565b6001600160401b038111611f3d57601f01601f191660200190565b51906001600160a01b038216820361064557565b51906001600160401b038216820361064557565b919082039182116122be57565b634e487b7160e01b5f52601160045260245ffd5b5f1981146122be5760010190565b601054600160401b811015611f3d5780600161230192016010556010612224565b81546001600160a01b0393841660039290921b91821b9390911b1916919091179055565b6001600160a01b03909116919082156124ec575f828152600260205260409020546001600160a01b03161515806124e4575b6124d5575f828152600260205260409020546001600160a01b031692829033151580612440575b508461240d575b805f52600360205260405f2060018154019055815f52600260205260405f20816bffffffffffffffffffffffff60a01b825416179055847fddf252ad1be2c89b69c2b068fc378daa952ba7f163c4a11628f55a4df523b3ef5f80a46001600160a01b03168083036123f557505050565b6364283d7b60e01b5f5260045260245260445260645ffd5b5f82815260046020526040902080546001600160a01b0319169055845f52600360205260405f205f198154019055612385565b90915080612484575b156124565782905f61237e565b828461246e57637e27328960e01b5f5260045260245ffd5b63177e802f60e01b5f523360045260245260445ffd5b5033841480156124b3575b8061244957505f838152600460205260409020546001600160a01b03163314612449565b505f84815260056020908152604080832033845290915290205460ff1661248f565b638cd22d1960e01b5f5260045ffd5b506001612357565b633250574960e11b5f525f60045260245ffd5b6001600160401b038111611f3d5760051b60200190565b80518210156122395760209160051b010190565b90816020910312610645575180151581036106455790565b5f818152600260205260409020546001600160a01b0316908115612564575090565b637e27328960e01b5f5260045260245ffd5b9060209060405190612588838361224d565b5f82526001600160a01b0384169384156124ec575f8281526002855260409020546001600160a01b03161515806127a5575b6124d5575f8281526002855260409020546001600160a01b03168015159081612774575b865f526003865260405f2060018154019055835f526002865260405f20876bffffffffffffffffffffffff60a01b8254161790558387827fddf252ad1be2c89b69c2b068fc378daa952ba7f163c4a11628f55a4df523b3ef5f80a450612761573b61264a575b50505050565b9161268791819495936040519384928392630a85bd0160e11b84523360048501525f6024850152604484015260806064840152608483019061215e565b03815f885af15f9181612721575b506126ea5750503d156126e2573d906126ad8261226e565b916126bb604051938461224d565b82523d5f8284013e5b815191826126df5783633250574960e11b5f5260045260245ffd5b01fd5b6060906126c4565b909291506001600160e01b03191663757a42ff60e11b0161270f57505f808080612644565b633250574960e11b5f5260045260245ffd5b9091508381813d831161275a575b612739818361224d565b8101031261064557516001600160e01b03198116810361064557905f612695565b503d61272f565b6339e3563760e11b5f525f60045260245ffd5b5f8481526004602052604080822080546001600160a01b031916905582825260038852902080545f190190556125de565b5060016125ba565b335f9081527f54cdd369e4e8a8515e52ca72ec816c2101831ad1f18bf44102ed171459c9b4f8602052604090205460ff16156127e557565b63e2517d3f60e01b5f52336004525f60245260445ffd5b5f81815260066020908152604080832033845290915290205460ff16156128205750565b63e2517d3f60e01b5f523360045260245260445ffd5b6128408282612bb8565b918261284b57505090565b5f9182526007602052604090912061286c916001600160a01b031690612ca6565b5090565b335f9081527f29a01a317deabed193210b58665b26e13f3f25b94c667f6108457516e68885f2602052604090205460ff161580612923575b806128eb575b6128b457565b63e2517d3f60e01b5f52336004527ff7f0fdec05d2d68a3ca32c78a26a4236722632f1d98fdee081484acf844fc7dc60245260445ffd5b50335f9081527f54cdd369e4e8a8515e52ca72ec816c2101831ad1f18bf44102ed171459c9b4f8602052604090205460ff16156128ae565b50335f9081527f6f33ec38532bdfedd8912126adc1f5918b75385d650da7c642efcc94ef3a60f5602052604090205460ff16156128a8565b823b612969575b5050505050565b604051630a85bd0160e11b81526001600160a01b0391821660048201529181166024830152604482019390935260806064820152911691602090829081906129b590608483019061215e565b03815f865af15f9181612a3a575b50612a1857503d15612a11573d6129d98161226e565b906129e7604051928361224d565b81523d5f602083013e5b80519081612a0c5782633250574960e11b5f5260045260245ffd5b602001fd5b60606129f1565b6001600160e01b03191663757a42ff60e11b0161270f57505f80808080612962565b9091506020813d602011612a77575b81612a566020938361224d565b8101031261064557516001600160e01b03198116810361064557905f6129c3565b3d9150612a49565b335f9081527f6f33ec38532bdfedd8912126adc1f5918b75385d650da7c642efcc94ef3a60f5602052604090205460ff161580612af4575b612abd57565b63e2517d3f60e01b5f52336004527f241ecf16d79d0f8dbfb92cbc07fe17840425976cf0667f022fe9877caa831b0860245260445ffd5b50335f9081527f54cdd369e4e8a8515e52ca72ec816c2101831ad1f18bf44102ed171459c9b4f8602052604090205460ff1615612ab7565b5f8181526006602090815260408083206001600160a01b038616845290915290205460ff16612bb2575f8181526006602090815260408083206001600160a01b0395909516808452949091528120805460ff19166001179055339291907f2f8788117e7eff1d82e926ec794901d17c78024a50270940304540a733656f0d9080a4600190565b50505f90565b5f8181526006602090815260408083206001600160a01b038616845290915290205460ff1615612bb2575f8181526006602090815260408083206001600160a01b0395909516808452949091528120805460ff19169055339291907ff6391f5c32d9c69d2a47ea670b442974b53935d1edc7fd64eb21e047a839171b9080a4600190565b6001810190825f528160205260405f2054155f14612c9f578054600160401b811015611f3d57612c8c612c76826001879401855584612224565b819391549060031b91821b915f19901b19161790565b905554915f5260205260405f2055600190565b5050505f90565b906001820191815f528260205260405f20548015155f14612d63575f1981018181116122be5782545f198101919082116122be57818103612d2e575b50505080548015612d1a575f190190612cfb8282612224565b8154905f199060031b1b19169055555f526020525f6040812055600190565b634e487b7160e01b5f52603160045260245ffd5b612d4e612d3e612c769386612224565b90549060031b1c92839286612224565b90555f528360205260405f20555f8080612ce2565b505050505f9056fe60a06040523461053857612dcf60e0813803918261001c8161053c565b9384928339810103126105385761003281610561565b61003e60208301610561565b9060408301519261005160608201610575565b9061005e60808201610575565b9061007760c061007060a08401610561565b9201610561565b90610082604061053c565b96600e88526d14d95cdcda5bdb88151a58dad95d60921b60208901526100a8604061053c565b600781526614d51250d2d15560ca1b6020820152885190986001600160401b038211610437575f5490600182811c9216801561052e575b60208310146104195781601f8493116104b9575b50602090601f8311600114610456575f9261044b575b50508160011b915f199060031b1c1916175f555b87516001600160401b03811161043757600154600181811c9116801561042d575b602082101461041957601f81116103ab575b506020601f821160011461034357819061022e999a5f92610338575b50508160011b915f199060031b1c1916176001555b6001601055600980546001600160a01b03199081166001600160a01b03898116918217909355600a80549092169a83169a909a179055600891909155600b8054600c80546001600160401b0319166001600160401b03909716969096179095556080929092526001600160e01b031990931660a09490941b600160a01b600160e01b031693909317911617905561021781610589565b610300575b610225816105ff565b6102bb5761067f565b610275575b60405161259f90816107708239608051818181610303015281816103f6015281816107570152818161083901528181610bcc01528181610d7f015261122d0152f35b5f516020612daf5f395f51905f525f5260076020526102b4907fbe8bb4833497a03f520f3fcef13ae816023e8d2f0f0f98707d9ee8c026de2bb46106ff565b505f610233565b5f516020612d4f5f395f51905f525f5260076020526102fa837fcbc82fc82c015b32ce89c3c5ced69cc726bc4fa91f427b060feff78e3f4fb1ee6106ff565b5061067f565b5f80526007602052610332837f6d5257204ebe7d88fd91ae87941cb2dd9d8062b64ae5a2bd2d28ec40b9fbf6df6106ff565b5061021c565b015190505f8061016c565b601f1982169960015f52815f209a5f5b81811061039357509161022e9a9b9184600195941061037b575b505050811b01600155610181565b01515f1960f88460031b161c191690555f808061036d565b838301518d556001909c019b60209384019301610353565b818111156101505760015f52601f820160051c7fb10e2d527612073b26eecdfd717e6a320cf44b4afac2b0732d9fcbe2b7fa0cf660208410610411575b81601f9101920160051c03905f5b828110610404575050610150565b5f828201556001016103f6565b5f91506103e8565b634e487b7160e01b5f52602260045260245ffd5b90607f169061013e565b634e487b7160e01b5f52604160045260245ffd5b015190505f80610109565b5f8080528281209350601f198516905b8181106104a15750908460019594939210610489575b505050811b015f5561011d565b01515f1960f88460031b161c191690555f808061047c565b92936020600181928786015181550195019301610466565b828111156100f3575f8052909150601f830160051c7f290decd9548b62a8d60345a988386fc84ba6bc95484008f6362f93160ef3e56360208510610526575b849392601f0160051c82900391015f5b8281106105165750506100f3565b5f81830155859450600101610508565b5f91506104f8565b91607f16916100df565b5f80fd5b6040519190601f01601f191682016001600160401b0381118382101761043757604052565b51906001600160a01b038216820361053857565b51906001600160401b038216820361053857565b6001600160a01b0381165f9081525f516020612d8f5f395f51905f52602052604090205460ff166105fa576001600160a01b03165f8181525f516020612d8f5f395f51905f5260205260408120805460ff191660011790553391905f516020612d0f5f395f51905f528180a4600190565b505f90565b6001600160a01b0381165f9081525f516020612d6f5f395f51905f52602052604090205460ff166105fa576001600160a01b03165f8181525f516020612d6f5f395f51905f5260205260408120805460ff191660011790553391905f516020612d4f5f395f51905f52905f516020612d0f5f395f51905f529080a4600190565b6001600160a01b0381165f9081525f516020612d2f5f395f51905f52602052604090205460ff166105fa576001600160a01b03165f8181525f516020612d2f5f395f51905f5260205260408120805460ff191660011790553391905f516020612daf5f395f51905f52905f516020612d0f5f395f51905f529080a4600190565b6001810190825f528160205260405f2054155f14610768578054680100000000000000008110156104375760018101808355811015610754578390825f5260205f20015554915f5260205260405f2055600190565b634e487b7160e01b5f52603260045260245ffd5b5050505f9056fe6080806040526004361015610012575f80fd5b5f905f3560e01c90816301ffc9a7146119bc5750806302d05d3f146119945780630538439f1461196c57806306fdde03146118b4578063081812fc14611878578063095ea7b31461178e5780631aa3a008146116de578063210ff9bb146116c157806323b872dd146116aa578063248a9ca3146116775780632f2ff15d1461161157806330cf203a146115d45780633197cbb6146115ad57806336568abe146115695780634165a1bb1461141c57806342842e0e146113ed5780634bdeb1d6146111d15780636352211e146111a157806370a082311461115057806378e97925146111265780639010d07c146110e1578063903fe15f146110a95780639054f8511461106c57806391d148541461102357806395d89b4114610f1b5780639a82a09a14610ef6578063a217fddf14610edc578063a22cb46514610e41578063a3246ad314610dc9578063a56a9ea814610dae578063a6602add14610d6a578063b88d4fde14610cd4578063bb760a7514610ac7578063c3c5a54714610a8a578063c87b56dd14610a2d578063ca15c87314610a03578063d547741f146109bb578063d9a59e33146107dc578063d9f103cc146107b3578063e2bb3ccf14610714578063e6733eda14610616578063e9420e01146103e3578063e985e9c51461038b578063ea8a1af0146102e2578063ec87621c146102a7578063f5dc7c4c14610289578063fb0a37b91461024e5763ff3685811461022e575f80fd5b3461024b578060031936011261024b576020600854604051908152f35b80fd5b503461024b578060031936011261024b5760206040517ff7f0fdec05d2d68a3ca32c78a26a4236722632f1d98fdee081484acf844fc7dc8152f35b503461024b578060031936011261024b576020600d54604051908152f35b503461024b578060031936011261024b5760206040517f241ecf16d79d0f8dbfb92cbc07fe17840425976cf0667f022fe9877caa831b088152f35b503461024b578060031936011261024b57600c5460ff8160401c1661037c577f00000000000000000000000000000000000000000000000000000000000000006001600160a01b0316330361036d5768ff00000000000000001916600160401b17600c557fc056e01b3a3bb579af94c745294a85b66e0f2a505798b008902b0c25f909ac688180a180f35b63ea8e4eb560e01b8252600482fd5b6303d1c3ef60e21b8252600482fd5b503461024b57604036600319011261024b5760406103a7611a7f565b916103b0611a95565b9260018060a01b031681526005602052209060018060a01b03165f52602052602060ff60405f2054166040519015158152f35b503461024b578060031936011261024b577f00000000000000000000000000000000000000000000000000000000000000006001600160a01b0316330361060757600f5460ff81166105f85760ff1916600117600f55600954604051906020906001600160a01b03166104568284611b21565b5f835280156105e5576001600160a01b036104725f1983611e96565b166105d2578392610486915f1990336120f0565b600980546001600160a01b0390811684526013835260408085208054600160ff199182168117909255845484168752601586528287205f19905584548416875260148652918620805490921617905590546104e19116611baa565b600a546001600160a01b031680610544575b506009546040515f1981526001600160a01b039091169182915f51602061254a5f395f51905f529190a27f591c0e1d11c1207ddcaf435e99150cb7d9c849a2c6d5eae9547cd518cef6a8cd8280a280f35b600954604051630e74825360e31b81526001600160a01b03909116600482015230602482015292829184916044918391905af19182156105c7575f51602061254a5f395f51905f529261059a575b8392506104f3565b6105b990823d84116105c0575b6105b18183611b21565b810190611dfa565b505f610592565b503d6105a7565b6040513d85823e3d90fd5b6339e3563760e11b5f525f60045260245ffd5b633250574960e11b5f525f60045260245ffd5b63bfd2ab3960e01b8252600482fd5b63ea8e4eb560e01b8152600490fd5b503461024b57602036600319011261024b577f241ecf16d79d0f8dbfb92cbc07fe17840425976cf0667f022fe9877caa831b088152600660209081526040808320335f90815292529020546004359060ff1615806106f1575b6106ba5780156106ab576020817f6e27af24ead46b4b469e383b46b4b75487fcf1ffce54d216add332f9de2120c592600855604051908152a180f35b63de4294fb60e01b8252600482fd5b63e2517d3f60e01b8252336004527f241ecf16d79d0f8dbfb92cbc07fe17840425976cf0667f022fe9877caa831b08602452604482fd5b50818052600660209081526040808420335f908152925290205460ff161561066f565b503461024b578060031936011261024b57600854600954600a54600b54600c54601154604080519687526001600160a01b039586166020880152938516868501527f0000000000000000000000000000000000000000000000000000000000000000909416606086015267ffffffffffffffff60a092831c8116608087015281169185019190915260ff911c16151560c083015260e082015261010090f35b503461024b578060031936011261024b57600a546040516001600160a01b039091168152602090f35b503461024b57602036600319011261024b576107f6611a7f565b60ff600c5460401c1661037c5761080b612005565b604051631867901d60e11b81526001600160a01b0380831660048301819052929190602090829060249082907f0000000000000000000000000000000000000000000000000000000000000000165afa9081156109b0578491610981575b501561097257818352601360205260ff6040842054161561096357818352601460205260ff60408420541661095457818352601460205260408320805460ff19166001179055600a5483916001600160a01b039190911690816108f0575b5050807f591c0e1d11c1207ddcaf435e99150cb7d9c849a2c6d5eae9547cd518cef6a8cd91a280f35b604051630e74825360e31b81526001600160a01b039190911660048201523060248201529160209183916044918391905af180156105c757610935575b8083916108c7565b61094d9060203d6020116105c0576105b18183611b21565b505f61092d565b630c98289f60e41b8352600483fd5b63aba4733960e01b8352600483fd5b630ab8484360e11b8352600483fd5b6109a3915060203d6020116109a9575b61099b8183611b21565b810190611de2565b5f610869565b503d610991565b6040513d86823e3d90fd5b503461024b57604036600319011261024b576109ff6004356109db611a95565b906109fa6109f5825f526006602052600160405f20015490565b611f91565b611fcb565b5080f35b503461024b57602036600319011261024b5760406020916004358152600783522054604051908152f35b34610a86576020366003190112610a8657610a49600435611e1d565b505f604051610a59602082611b21565b52610a82604051610a6b602082611b21565b5f8152604051918291602083526020830190611a5b565b0390f35b5f80fd5b34610a86576020366003190112610a86576001600160a01b03610aab611a7f565b165f526013602052602060ff60405f2054166040519015158152f35b34610a86576020366003190112610a865760ff600c5460401c16610cc5576009546001600160a01b03163314610cb657335f52600e60205260ff60405f205416610ca757600b5460405163f728ff4b60e01b8152600480359082015290606090829060249082906001600160a01b03165afa908115610c9c575f91610c02575b5060208101516001600160a01b0316331480159190610bc9575b50610bba57335f52600e60205260405f20600160ff19825416179055610b88600d54611b5f565b80600d556040519081527f75f600189fbe7c0a7820af7049d25b7afe7c81792dd7309aa2618d61e74e805060203392a2005b6325cab29160e01b5f5260045ffd5b517f00000000000000000000000000000000000000000000000000000000000000006001600160a01b0390811691161415905081610b61565b90506060813d606011610c94575b81610c1d60609383611b21565b81010312610a865760405190606082019082821067ffffffffffffffff831117610c80576040918252610c4f81611e09565b8352610c5d60208201611e09565b6020840152015167ffffffffffffffff81168103610a8657604082015281610b47565b634e487b7160e01b5f52604160045260245ffd5b3d9150610c10565b6040513d5f823e3d90fd5b63018f77f960e11b5f5260045ffd5b630881edc760e01b5f5260045ffd5b6303d1c3ef60e21b5f5260045ffd5b34610a86576080366003190112610a8657610ced611a7f565b610cf5611a95565b906044356064359267ffffffffffffffff8411610a865736602385011215610a8657836004013592610d2684611b43565b93610d346040519586611b21565b8085523660248288010111610a86576020815f926024610d6899018389013786010152610d62838383611bef565b33612225565b005b34610a86575f366003190112610a86576040517f00000000000000000000000000000000000000000000000000000000000000006001600160a01b03168152602090f35b34610a86575f366003190112610a8657602060405160058152f35b34610a86576020366003190112610a86576004355f52600760205260405f206040519081602082549182815201915f5260205f20905f5b818110610e2b57610a8285610e1781870382611b21565b604051918291602083526020830190611ae5565b8254845260209093019260019283019201610e00565b34610a86576040366003190112610a8657610e5a611a7f565b60243590811515809203610a86576001600160a01b0316908115610ec957335f52600560205260405f20825f5260205260405f2060ff1981541660ff83161790556040519081527f17307eab39ab6107e8899845ad3d59bd9653f200f220920489ca2b5937696c3160203392a3005b50630b61174360e31b5f5260045260245ffd5b34610a86575f366003190112610a865760206040515f8152f35b34610a86575f366003190112610a8657602060ff600c5460401c166040519015158152f35b34610a86575f366003190112610a86576040515f6001548060011c90600181168015611019575b60208310811461100557828552908115610fe15750600114610f83575b610a8283610f6f81850382611b21565b604051918291602083526020830190611a5b565b91905060015f527fb10e2d527612073b26eecdfd717e6a320cf44b4afac2b0732d9fcbe2b7fa0cf6915f905b808210610fc757509091508101602001610f6f610f5f565b919260018160209254838588010152019101909291610faf565b60ff191660208086019190915291151560051b84019091019150610f6f9050610f5f565b634e487b7160e01b5f52602260045260245ffd5b91607f1691610f42565b34610a86576040366003190112610a865761103c611a95565b6004355f52600660205260405f209060018060a01b03165f52602052602060ff60405f2054166040519015158152f35b34610a86576020366003190112610a86576001600160a01b0361108d611a7f565b165f52600e602052602060ff60405f2054166040519015158152f35b34610a86576020366003190112610a86576001600160a01b036110ca611a7f565b165f526015602052602060405f2054604051908152f35b34610a86576040366003190112610a86576004355f526007602052602061110d60243560405f20611b81565b905460405160039290921b1c6001600160a01b03168152f35b34610a86575f366003190112610a8657602067ffffffffffffffff600b5460a01c16604051908152f35b34610a86576020366003190112610a86576001600160a01b03611171611a7f565b16801561118e575f526003602052602060405f2054604051908152f35b6322718ad960e21b5f525f60045260245ffd5b34610a86576020366003190112610a865760206111bf600435611e1d565b6040516001600160a01b039091168152f35b34610a86576020366003190112610a86576111ea611a7f565b60ff600c5460401c16610cc5576111ff612005565b604051631867901d60e11b81526001600160a01b0380831660048301819052929190602090829060249082907f0000000000000000000000000000000000000000000000000000000000000000165afa908115610c9c575f916113ce575b50156113bf57815f52601460205260ff60405f2054166113b057815f52601360205260ff60405f20541615611340575b5f828152601460205260409020805460ff19166001179055600a546001600160a01b0316806112de575b827f591c0e1d11c1207ddcaf435e99150cb7d9c849a2c6d5eae9547cd518cef6a8cd5f80a2005b604051630e74825360e31b81526001600160a01b03929092166004830152306024830152602090829060449082905f905af18015610c9c57611321575b806112b7565b6113399060203d6020116105c0576105b18183611b21565b508161131b565b815f51602061254a5f395f51905f52602060105461135d81611b5f565b601055835f526013825260405f20600160ff19825416179055835f52601582528060405f205561138e601154611b5f565b60115561139a85611baa565b6113a48186611e51565b604051908152a261128d565b630c98289f60e41b5f5260045ffd5b630ab8484360e11b5f5260045ffd5b6113e7915060203d6020116109a95761099b8183611b21565b8361125d565b34610a8657610d686113fe36611aab565b906040519261140e602085611b21565b5f8452610d62838383611bef565b34610a86575f366003190112610a865760405180816020601254928381520160125f527fbb8a6a4669ba250d26cd7a459eca9d215f8307e33aebe50379bc5a3617ec3444925f5b81811061154757505061147892500382611b21565b805161149c61148682611db6565b916114946040519384611b21565b808352611db6565b602082019190601f19013683375f5b83518110156114ef576001906001600160a01b036114c98287611dce565b51165f52601460205260ff60405f2054166114e48285611dce565b9015159052016114ab565b509061150c92916020604051948594604086526040860190611ae5565b918483038286015251918281520191905f5b81811061152c575050500390f35b8251151584528594506020938401939092019160010161151e565b84546001600160a01b0316835260019485019486945060209093019201611463565b34610a86576040366003190112610a8657611582611a95565b336001600160a01b0382160361159e57610d6890600435611fcb565b63334bd91960e11b5f5260045ffd5b34610a86575f366003190112610a8657602067ffffffffffffffff600c5416604051908152f35b34610a86576020366003190112610a86576001600160a01b036115f5611a7f565b165f526014602052602060ff60405f2054166040519015158152f35b34610a86576040366003190112610a865760043561162d611a95565b6116466109f5835f526006602052600160405f20015490565b611650818361230a565b61165657005b5f91825260076020526040909120610d68916001600160a01b03169061241a565b34610a86576020366003190112610a865760206116a26004355f526006602052600160405f20015490565b604051908152f35b34610a8657610d686116bb36611aab565b91611bef565b34610a86575f366003190112610a86576020601154604051908152f35b34610a86575f366003190112610a865760ff600c5460401c16610cc557335f52601360205260ff60405f20541661177f5760105461171b81611b5f565b601055335f52601360205260405f20600160ff19825416179055335f5260156020528060405f205561174e601154611b5f565b60115561175a33611baa565b6117648133611e51565b6040519081525f51602061254a5f395f51905f5260203392a2005b630ea075bf60e21b5f5260045ffd5b34610a86576040366003190112610a86576117a7611a7f565b6024356117b381611e1d565b33151580611865575b80611838575b6118255781906001600160a01b0384811691167f8c5be1e5ebec7d5bd14f71427d1e84f3dd0314c0f7b2291e5b200ac8c7c3b9255f80a45f90815260046020526040902080546001600160a01b0319166001600160a01b03909216919091179055005b63a9fbf51f60e01b5f523360045260245ffd5b506001600160a01b0381165f90815260056020908152604080832033845290915290205460ff16156117c2565b506001600160a01b0381163314156117bc565b34610a86576020366003190112610a865760043561189581611e1d565b505f526004602052602060018060a01b0360405f205416604051908152f35b34610a86575f366003190112610a86576040515f5f548060011c90600181168015611962575b60208310811461100557828552908115610fe1575060011461190657610a8283610f6f81850382611b21565b5f8080527f290decd9548b62a8d60345a988386fc84ba6bc95484008f6362f93160ef3e563939250905b80821061194857509091508101602001610f6f610f5f565b919260018160209254838588010152019101909291611930565b91607f16916118da565b34610a86575f366003190112610a8657600b546040516001600160a01b039091168152602090f35b34610a86575f366003190112610a86576009546040516001600160a01b039091168152602090f35b34610a86576020366003190112610a86576004359063ffffffff60e01b8216809203610a8657602091635a05180f60e01b81149081156119fe575b5015158152f35b637965db0b60e01b811491508115611a18575b50836119f7565b6380ac58cd60e01b811491508115611a4a575b8115611a39575b5083611a11565b6301ffc9a760e01b14905083611a32565b635b5e139f60e01b81149150611a2b565b805180835260209291819084018484015e5f828201840152601f01601f1916010190565b600435906001600160a01b0382168203610a8657565b602435906001600160a01b0382168203610a8657565b6060906003190112610a86576004356001600160a01b0381168103610a8657906024356001600160a01b0381168103610a86579060443590565b90602080835192838152019201905f5b818110611b025750505090565b82516001600160a01b0316845260209384019390920191600101611af5565b90601f8019910116810190811067ffffffffffffffff821117610c8057604052565b67ffffffffffffffff8111610c8057601f01601f191660200190565b5f198114611b6d5760010190565b634e487b7160e01b5f52601160045260245ffd5b8054821015611b96575f5260205f2001905f90565b634e487b7160e01b5f52603260045260245ffd5b601254600160401b811015610c8057806001611bcb92016012556012611b81565b81546001600160a01b0393841660039290921b91821b9390911b1916919091179055565b6001600160a01b03909116919082156105e5575f828152600260205260409020546001600160a01b0316151580611dae575b611d9f575f828152600260205260409020546001600160a01b031692829033151580611d0a575b5084611cd7575b805f52600360205260405f2060018154019055815f52600260205260405f20816bffffffffffffffffffffffff60a01b825416179055847fddf252ad1be2c89b69c2b068fc378daa952ba7f163c4a11628f55a4df523b3ef5f80a46001600160a01b0316808303611cbf57505050565b6364283d7b60e01b5f5260045260245260445260645ffd5b5f82815260046020526040902080546001600160a01b0319169055845f52600360205260405f205f198154019055611c4f565b90915080611d4e575b15611d205782905f611c48565b8284611d3857637e27328960e01b5f5260045260245ffd5b63177e802f60e01b5f523360045260245260445ffd5b503384148015611d7d575b80611d1357505f838152600460205260409020546001600160a01b03163314611d13565b505f84815260056020908152604080832033845290915290205460ff16611d59565b638cd22d1960e01b5f5260045ffd5b506001611c21565b67ffffffffffffffff8111610c805760051b60200190565b8051821015611b965760209160051b010190565b90816020910312610a8657518015158103610a865790565b90816020910312610a86575190565b51906001600160a01b0382168203610a8657565b5f818152600260205260409020546001600160a01b0316908115611e3f575090565b637e27328960e01b5f5260045260245ffd5b9060405190611e61602083611b21565b5f82526001600160a01b038316156105e5576001600160a01b03611e858285611e96565b166105d257611e9492336120f0565b565b5f828152600260205260409020549091906001600160a01b0316151580611f7f575b611d9f575f818152600260205260409020546001600160a01b03169182611f4c575b6001600160a01b031680611f34575b815f52600260205260405f20816bffffffffffffffffffffffff60a01b825416179055827fddf252ad1be2c89b69c2b068fc378daa952ba7f163c4a11628f55a4df523b3ef5f80a490565b805f52600360205260405f2060018154019055611ee9565b5f82815260046020526040902080546001600160a01b0319169055825f52600360205260405f205f198154019055611eda565b506001600160a01b0382161515611eb8565b5f81815260066020908152604080832033845290915290205460ff1615611fb55750565b63e2517d3f60e01b5f523360045260245260445ffd5b611fd58282612396565b9182611fe057505090565b5f91825260076020526040909120612001916001600160a01b031690612484565b5090565b335f9081527f29a01a317deabed193210b58665b26e13f3f25b94c667f6108457516e68885f2602052604090205460ff1615806120b8575b80612080575b61204957565b63e2517d3f60e01b5f52336004527ff7f0fdec05d2d68a3ca32c78a26a4236722632f1d98fdee081484acf844fc7dc60245260445ffd5b50335f9081527f54cdd369e4e8a8515e52ca72ec816c2101831ad1f18bf44102ed171459c9b4f8602052604090205460ff1615612043565b50335f9081527f6f33ec38532bdfedd8912126adc1f5918b75385d650da7c642efcc94ef3a60f5602052604090205460ff161561203d565b9291813b6120ff575b50505050565b604051630a85bd0160e11b81526001600160a01b0394851660048201525f6024820152604481019190915260806064820152921691906020908290819061214a906084830190611a5b565b03815f865af15f91816121e0575b506121ad57503d156121a6573d61216e81611b43565b9061217c6040519283611b21565b81523d5f602083013e5b805190816121a15782633250574960e11b5f5260045260245ffd5b602001fd5b6060612186565b6001600160e01b03191663757a42ff60e11b016121ce57505f8080806120f9565b633250574960e11b5f5260045260245ffd5b9091506020813d60201161221d575b816121fc60209383611b21565b81010312610a8657516001600160e01b031981168103610a8657905f612158565b3d91506121ef565b823b612233575b5050505050565b604051630a85bd0160e11b81526001600160a01b03918216600482015291811660248301526044820193909352608060648201529116916020908290819061227f906084830190611a5b565b03815f865af15f91816122c5575b506122a357503d156121a6573d61216e81611b43565b6001600160e01b03191663757a42ff60e11b016121ce57505f8080808061222c565b9091506020813d602011612302575b816122e160209383611b21565b81010312610a8657516001600160e01b031981168103610a8657905f61228d565b3d91506122d4565b5f8181526006602090815260408083206001600160a01b038616845290915290205460ff16612390575f8181526006602090815260408083206001600160a01b0395909516808452949091528120805460ff19166001179055339291907f2f8788117e7eff1d82e926ec794901d17c78024a50270940304540a733656f0d9080a4600190565b50505f90565b5f8181526006602090815260408083206001600160a01b038616845290915290205460ff1615612390575f8181526006602090815260408083206001600160a01b0395909516808452949091528120805460ff19169055339291907ff6391f5c32d9c69d2a47ea670b442974b53935d1edc7fd64eb21e047a839171b9080a4600190565b6001810190825f528160205260405f2054155f1461247d578054600160401b811015610c805761246a612454826001879401855584611b81565b819391549060031b91821b915f19901b19161790565b905554915f5260205260405f2055600190565b5050505f90565b906001820191815f528260205260405f20548015155f14612541575f198101818111611b6d5782545f19810191908211611b6d5781810361250c575b505050805480156124f8575f1901906124d98282611b81565b8154905f199060031b1b19169055555f526020525f6040812055600190565b634e487b7160e01b5f52603160045260245ffd5b61252c61251c6124549386611b81565b90549060031b1c92839286611b81565b90555f528360205260405f20555f80806124c0565b505050505f9056fe6f3bf3fa84e4763a43b3d23f9d79be242d6d5c834941ff4c1111b67469e1150ca26469706673582212209d6568ca76ed3594a439a35f598a7ba865eb6eec6f08bf3d17aa8a08cdd6415964736f6c634300082300332f8788117e7eff1d82e926ec794901d17c78024a50270940304540a733656f0d29a01a317deabed193210b58665b26e13f3f25b94c667f6108457516e68885f2241ecf16d79d0f8dbfb92cbc07fe17840425976cf0667f022fe9877caa831b086f33ec38532bdfedd8912126adc1f5918b75385d650da7c642efcc94ef3a60f554cdd369e4e8a8515e52ca72ec816c2101831ad1f18bf44102ed171459c9b4f8f7f0fdec05d2d68a3ca32c78a26a4236722632f1d98fdee081484acf844fc7dca264697066735822122010f34685d76398c167d0f6b7e931d3f85337b54780ccdcfcd68c87369ef99f9364736f6c634300082300332f8788117e7eff1d82e926ec794901d17c78024a50270940304540a733656f0d29a01a317deabed193210b58665b26e13f3f25b94c667f6108457516e68885f2241ecf16d79d0f8dbfb92cbc07fe17840425976cf0667f022fe9877caa831b086f33ec38532bdfedd8912126adc1f5918b75385d650da7c642efcc94ef3a60f554cdd369e4e8a8515e52ca72ec816c2101831ad1f18bf44102ed171459c9b4f8f7f0fdec05d2d68a3ca32c78a26a4236722632f1d98fdee081484acf844fc7dc","linkReferences":{}},"methodIdentifiers":{"DEFAULT_ADMIN_ROLE()":"a217fddf","MANAGER_ROLE()":"ec87621c","VOLUNTEER_ROLE()":"fb0a37b9","approve(address,uint256)":"095ea7b3","balanceOf(address)":"70a08231","cancel()":"ea8a1af0","cancelSession(address)":"8e4b8aec","cancelled()":"9a82a09a","capacity()":"5cfc1a51","channelMetadataCid()":"d5ec6bab","checkIn(address)":"d9a59e33","createSession(bytes32,uint64,uint64,uint256)":"06387cdb","creator()":"02d05d3f","endTime()":"3197cbb6","festivalPoapContract()":"0538439f","getApproved(uint256)":"081812fc","getAttendees()":"4165a1bb","getEventDetails()":"e2bb3ccf","getRoleAdmin(bytes32)":"248a9ca3","getRoleMember(bytes32,uint256)":"9010d07c","getRoleMemberCount(bytes32)":"ca15c873","getRoleMembers(bytes32)":"a3246ad3","getSessionCount()":"6e6734bf","getSessions()":"61503e45","grantRole(bytes32,address)":"2f2ff15d","hasRole(bytes32,address)":"91d14854","isApprovedForAll(address,address)":"e985e9c5","isCheckedIn(address)":"30cf203a","isRegistered(address)":"c3c5a547","isSession(address)":"dc15f9c2","manualCheckIn(address)":"4bdeb1d6","metadataCid()":"ff368581","name()":"06fdde03","ownerOf(uint256)":"6352211e","register()":"1aa3a008","registeredCount()":"210ff9bb","renounceRole(bytes32,address)":"36568abe","revokeRole(bytes32,address)":"d547741f","safeTransferFrom(address,address,uint256)":"42842e0e","safeTransferFrom(address,address,uint256,bytes)":"b88d4fde","sessionCreator(address)":"a70b30e6","sessionPoapContract()":"cb56c2f1","sessions(uint256)":"83c4b7a3","sessionsEnabled()":"c9358954","sessionsPerDay(address,uint256)":"7d9b3bd4","setApprovalForAll(address,bool)":"a22cb465","setup(bytes32,bytes32,uint64,uint64,uint32)":"3674b18a","startTime()":"78e97925","supportsInterface(bytes4)":"01ffc9a7","symbol()":"95d89b41","ticketOf(address)":"903fe15f","tokenURI(uint256)":"c87b56dd","transferFrom(address,address,uint256)":"23b872dd","updateCapacity(uint32)":"d4e0fa23","updateChannelMetadataCid(bytes32)":"d8586070","updateCid(bytes32)":"e6733eda","updateSessionsEnabled(bool)":"693c026b"},"id":45}